:020000040800F2
:1000000070320020F91B0008B9050008BB05000884
:10001000BF050008C3050008C70500080000000070
:10002000000000000000000000000000CB050008F8
:10003000CD05000800000000CF050008D10500082C
:10004000131C0008131C0008131C0008131C0008D4
:10005000131C0008131C0008131C0008131C0008C4
:10006000131C0008131C0008131C0008131C0008B4
:10007000131C0008131C0008131C0008131C0008A4
:10008000131C0008131C0008131C0008131C000894
:10009000131C0008131C0008131C0008131C000884
:1000A000131C0008131C0008131C0008131C000874
:1000B000131C0008131C0008131C0008131C000864
:1000C000131C0008131C0008131C0008131C000854
:1000D000131C00086D1B0008131C0008131C0008EB
:1000E000131C0008131C0008131C000800F002F881
:1000F00000F042F80AA090E8000C82448344AAF180
:100100000107DA4501D100F037F8AFF2090EBAE87D
:100110000F0013F0010F18BFFB1A43F0010318473B
:10012000E046000000470000103A24BF78C878C1BC
:10013000FAD8520724BF30C830C144BF04680C60ED
:10014000704700000023002400250026103A28BF35
:1001500078C1FBD8520728BF30C148BF0B60704739
:10016000692902F0A583642902F0A2830020704768
:100170001FB51FBD10B510BD02F0EEFC1146FFF714
:10018000F7FF00F048F802F00CFD03B4FFF7F2FFB0
:1001900003BC01F08DFC00002DE9F04705468846C0
:1001A0004FF000094FF4802700240DE055F824009B
:1001B000484501D955F8249055F82400B84201D299
:1001C00055F82470601C84B2FF2CEFDDA9EB07000A
:1001D0001421B0FBF1FA002419E0600055F820006A
:1001E000012101EB440155F8211046187608F61B51
:1001F000B6FBFAF6142E00D91426C8F13F02921B62
:10020000D1B2E0B2012201F0FDF9601C84B2802C71
:10021000E3DBBDE8F0879EB000BF4FF00009CA469F
:1002200001F040FC01F0D4FB4FF4E13001F04FFC51
:1002300000F0C0FA01F038FB1023B2A200210846FA
:1002400001F003FB01F08AF900F079FDB2A002F0A1
:10025000E7FAB74D00264FF4FA70B649086000245B
:1002600035E000BFB44800680128FBD01CA9072076
:1002700000F01BFD9DF870008007800B9DF8711049
:1002800040EA01209DF872100843AC4941F824006F
:100290009DF873008007800B9DF8741040EA0120E0
:1002A0009DF875100843A64941F82400A34850F86A
:1002B0002400A84202D2A14850F824509F4850F888
:1002C0002400B04202D99D4850F82460641C99482B
:1002D00000688442C5DB994850F8247099489A49CF
:1002E0009A4A9B4BCDE900210290944A91480168BB
:1002F000934800F089FE04E100248D4D002664241B
:1003000020E08E4850F82410A4F164008B4A42F893
:1003100020108B4850F82410A4F16400884A42F859
:100320002010864850F82400A84202D2834850F892
:100330002450824850F82400B04202D97F4850F837
:100340002460641CB4F5FA7FDBDB4FF4C8749CE0D6
:10035000601E7A4951F8207000BF77480068012874
:10036000FBD01CA9072000F0A0FC9DF870008007BE
:10037000800B9DF8711040EA01209DF8721008432F
:100380006E4941F824009DF873008007800B9DF8AA
:10039000741040EA01209DF875100843684941F83F
:1003A0002400664850F82400B8421FD9634951F828
:1003B0002410C81B02F0E8FC8346701B02F0E4FC2A
:1003C00001460290584602F001FC834661495846B6
:1003D00002F0EEFC8346584602F0BAFCA8EB000897
:1003E000B8F1000F20DA4FF000081DE0534951F832
:1003F0002410781A02F0C8FC8346701B02F0C4FC7B
:1004000001460290584602F0E1FB834651495846A6
:1004100002F0CEFC8346584602F09AFC8044B8F1C4
:10042000FF0F01DD4FF0FF0846480078012812D188
:100430004648007801280ED14348006878280ADA37
:1004400043480068652806DA3F4890F80090404825
:1004500090F800A002E04FF00009CA463A4801684F
:100460003DA002F0DDF9374890F900103CA002F001
:10047000D7F9374801683EA002F0D2F9334890F925
:1004800000103EA002F0CCF9641CB4F5FA7FFFF630
:100490005FAF2C482C492D4A2D4BCDE9002102900D
:1004A000264A24480168264800F0AEFD002037495E
:1004B0000860B9F1000F07D1BAF1000F04D134A1DF
:1004C00003A802F0B9F905E053464A4635A103A84E
:1004D00002F0B2F9102303AA0021084601F0B5F991
:1004E00000203F237F221721009001F0BDF8142146
:1004F0001248FFF751FE00211148FFF74DFE01F0B1
:100500002DF8F9E62020696E697469616C697A6971
:100510006E672020000000000D0A204D4158333046
:100520003130322020696E697420200D0A000000ED
:10053000FFFF030000000020248121421808002052
:1005400048000020100000200C00002008000020BF
:100550000400002000007F4348523D25692C200004
:10056000485276616C69643D25692C2000000000CA
:1005700053704F323D25692C2000000053504F32FC
:1005800056616C69643D25690D0A000084012142B1
:1005900048523A2D2D2D2053704F323A2D2D2D20BB
:1005A0000000000048523A2533642053704F323A1D
:1005B0002533642000000000704700BFFEE700BF45
:1005C000FEE700BFFEE700BFFEE7704770477047D9
:1005D000704700000CB50020019000906C48006846
:1005E00040F480306A49086000BF6948006800F440
:1005F000003000900198401C0190009818B90198B3
:10060000B0F5A06FF1D16248006800F4003010B17D
:100610000120009001E0002000900098012843D1C3
:100620005C48006840F010005A49086008460068BD
:1006300020F0030008600846006840F002000860EF
:100640005348406852494860084640684860084638
:10065000406840F4806048600846406820F47C10A0
:1006600048600846406840F4E81048600846006862
:1006700040F08070086000BF4548006800F00070DE
:100680000028F9D04248406820F003004049486003
:100690000846406840F00200486000BF3C4840689F
:1006A00000F00C000828F9D10CBD10B5FFF792FF3F
:1006B00010BD10B53648006840F0010034490860AC
:1006C0000846406834490840314948600846006897
:1006D000324908402E4908600846006820F480200E
:1006E00008600846406820F4FE0048604FF41F0090
:1006F0008860FFF7DAFF4FF000602949086010BDFD
:1007000010B5002100200022214B5B6803F00C0192
:1007100021B1042906D0082928D107E0214B224C19
:10072000236027E01F4B204C236023E0184B5B68BD
:1007300003F47010164B5B6803F48032022303EB62
:10074000904022B9194B4343174C23600DE0104BE6
:100750005B6803F4003323B1144B4343124C236012
:1007600003E0104B4343104C236003E00D4B0E4C51
:10077000236000BF00BF064B5B68C3F303130C4C40
:10078000E15C094B1B68CB40074C236010BD0000A7
:1007900000100240002002400000FFF8FFFFF6FEBC
:1007A00008ED00E000127A001400002000093D006E
:1007B0001800002008B50121042001F059FD022095
:1007C000ADF8000010208DF8030003208DF8020022
:1007D0006946044801F090FA0221024801F039FB11
:1007E00008BD00000008014008B50121082001F003
:1007F0003FFD4FF4C070ADF8000010208DF80300ED
:1008000003208DF802006946D54801F075FA0120F1
:10081000D4490860D449C1F8A00108BD10B5D0483A
:10082000001D006820F00F00CD49091D0860084632
:10083000006840F0070008600120CA49091D0860EF
:10084000C949C1F89C01042001F0DBF80020C5492A
:10085000091D0860042001F0D4F80020C249C1F845
:100860009C0110BD10B5BE48001D006820F00F00AF
:10087000BB49091D08600846006840F00700086091
:100880000020B8490860B849C1F8A001042001F06F
:10089000B8F80120B3490860B349C1F8A0010420A9
:1008A00001F0AFF810BD10B50024AD48001D006880
:1008B00020F00F00AA49091D08600846006840F0B2
:1008C000040008600120A749091D086001F099F89B
:1008D0000120A549C1F89C0101F093F807E0601CD4
:1008E000C4B2FA2C03DDFFF7BDFF012010BD9D4807
:1008F0007C3800680028F2D19A49086000BFF5E70B
:1009000010B50020974908609548001D006820F048
:100910000F009349091D08600846006840F0070071
:10092000086000209049C1F8A001022001F069F898
:1009300001208C490860022001F063F800208A49F8
:10094000C1F89C0110BD10B500208649086084489C
:10095000001D006820F00F008149091D086008464D
:10096000006840F00700086001207F49C1F8A0013D
:10097000022001F046F801207A490860022001F0C7
:1009800040F800207849C1F89C0110BD70B50446BC
:100990007348001D006820F00F007149091D0860B0
:1009A0000846006840F00700086000206D490860B4
:1009B000002517E0E0096B49091D08606006040E78
:1009C000022001F01EF801206749C1F89C010220B5
:1009D00001F017F8002063490860022001F011F8C7
:1009E000681CC5B2082DE5DB70BD70B50546002456
:1009F0005B48001D006820F00F005949091D086080
:100A00000846006840F004000860002616E0002058
:100A100054490860022000F0F4FF01205249C1F857
:100A20009C016006040E4F487C38006808B1601CC9
:100A3000C4B2012000F0E5FF701CC6B2082EE6DB50
:100A400015B9FFF780FF01E0FFF75AFF204670BDA0
:100A50002DE9F04107460D461646FFF7DFFE384602
:100A6000FFF794FFFFF71FFF002406E0285DFFF764
:100A70008DFFFFF718FF601CC4B2B442F6DBFFF72E
:100A8000F1FE0A2000F0E1FFBDE8F0812DE9F04120
:100A90000746884614461D46FFF7C0FE3846FFF756
:100AA00075FFFFF700FF4046FFF770FFFFF7FBFE03
:100AB00047F00100FFF76AFFFFF7F5FE002605E0AB
:100AC0000120FFF792FFA055701CC6B2681EB0420D
:100AD000F6DC0020FFF789FF691E6054FFF7C2FEB5
:100AE0000A2000F0B2FFBDE8F08170B504460D4663
:100AF0001646FFF793FE2046FFF748FFFFF7D3FEA9
:100B00002846FFF743FFFFF7CEFEFFF787FE44F0CE
:100B10000100FFF73BFFFFF7C6FE0020FFF765FF70
:100B20003070FFF79FFE70BD70B506460C46154647
:100B3000FFF774FE3046FFF729FFFFF7B4FE2046AB
:100B4000FFF724FFFFF7AFFE2846FFF71FFFFFF771
:100B5000AAFEFFF787FE0A2000F077FF70BD0000B5
:100B6000000C01409C8121420080214270B5054665
:100B70000C46FFF753FEAE20FFF708FFFFF793FE8A
:100B800000B111E02846FFF701FFFFF78CFE00B12E
:100B90000AE02046FFF7FAFEFFF785FE00B103E00A
:100BA000FFF760FE012070BDFFF75CFE0020FAE752
:100BB00070B50446FFF732FEAE20FFF7E7FEFFF701
:100BC00072FE00B119E02046FFF7E0FEFFF76BFE72
:100BD00000B112E0FFF722FEAF20FFF7D7FEFFF7CC
:100BE00062FE00B109E00020FFF7FFFE0546FFF7B7
:100BF000AAFEFFF737FE284670BDFFF733FE002040
:100C0000FAE72DE9F04782460C46174600253E4696
:100C1000FFF704FEAE20FFF7B9FEFFF744FE00B178
:100C20003FE05046FFF7B2FEFFF73DFE00B138E06F
:100C3000FFF7F4FDAF20FFF7A9FEFFF734FE00B188
:100C40002FE029E00020FFF7D0FE8046FFF758FE96
:100C50000020FFF7CAFE8146FFF752FE49EA08204E
:100C600024F825000020FFF7C0FE8046FFF748FE6D
:100C70000020FFF7BAFE8146012E02D1FFF763FE86
:100C800001E0FFF73DFE49EA082004EB85014880BA
:100C9000701EC6B2681CC5B2002ED3D1FFF7E2FDAC
:100CA00000BFFFF7DFFDBDE8F08770B505460C46D5
:100CB0000020FFF77DFF0120FFF77AFFFFF7AEFD71
:100CC000AE20FFF763FEFFF7EEFD00B12AE02846F5
:100CD000FFF75CFEFFF7E7FD00B123E0FFF79EFDA5
:100CE000AF20FFF753FEFFF7DEFD00B11AE0012051
:100CF000FFF77BFE20700120FFF777FE6070012078
:100D0000FFF773FEA0700120FFF76FFEE070012077
:100D1000FFF76BFE20710020FFF767FE6071FFF7A1
:100D2000A1FD00BFFFF79EFD70BD10B54021092059
:100D3000FFF71CFF40210920FFF718FF10BD08B581
:100D40000121082001F094FA4FF48040ADF8000032
:100D500048208DF803006946414800F0CDFFFFF7B9
:100D600043FDFFF7E2FFC0210220FFF7FFFE002155
:100D70000320FFF7FBFE00210420FFF7F7FE002110
:100D80000520FFF7F3FE00210620FFF7EFFE0F21FD
:100D90000820FFF7EBFE03210920FFF7E7FE2721DC
:100DA0000A20FFF7E3FE24210C20FFF7DFFE2421B9
:100DB0000D20FFF7DBFE7F211020FFF7D7FE08BDD7
:100DC00070B504460D462A462146AE20FFF7ACFE1C
:100DD00070BD70B504460D462A462146AE20FFF789
:100DE00084FE70BDFEB506460C46002030602060D3
:100DF00002A9FFF7EEFF02A90120FFF7EAFF062391
:100E00006A460721AE20FFF741FE9DF800502D04F1
:100E10003068284430609DF801502D023068284425
:100E200030609DF802503068284430609DF80350CF
:100E30002D042068284420609DF804502D0220686D
:100E4000284420609DF805502068284420603068C0
:100E5000C0F3110030602068C0F311002060FEBDB7
:100E6000000C014030B50C46012213E050F822304E
:100E7000114605E04D1E50F8255040F82150491EFE
:100E8000002904DD4D1E50F825509D42F2DC40F84B
:100E90002130521CA242E9DB30BDF0B503461546B5
:100EA000012217E051F82240104605E0461E51F895
:100EB000266041F82060401E002808DD53F82470A9
:100EC000461E51F8266053F82660B742EEDC41F822
:100ED0002040521CAA42E5DBF0BD2DE9F04F05464B
:100EE0000C4692469846294650462268FFF7D5FFA1
:100EF0004FF0FF3621E0D4F800B0701C2060771C62
:100F000018E055F82710701C10B94FF0FF3001E0C1
:100F100055F82600A1EB0009C14503DCC8F100002B
:100F2000814506DA55F827102268501C206045F8E4
:100F300022107F1C5F45E4DB761C2068B042DADCBF
:100F400028462168FFF78EFFBDE8F08FF0B5054613
:100F50001C46059E012000270F6030E052F82070EB
:100F6000B7422BDD52F820C0471E52F82770BC450F
:100F700024DD012300E05B1CC718A74207DA52F802
:100F8000207000EB030C52F82CC06745F3D052F8E8
:100F9000207000EB030C52F82CC067450CDD0F6885
:100FA0000F2F09DAD1F800C00CF101070F6045F8E6
:100FB0002C005F1C384402E0184400E0401C671E0F
:100FC0008742CBDCF0BD2DE9F84705460C461646B6
:100FD0001F46DDE90A9ADDF824803B463246214669
:100FE0002846CDF80080FFF7B1FF4B463246214638
:100FF0002846FFF772FF2068504501DA206800E0BC
:1010000050462060BDE8F8872DE9FF4FC6B08846FE
:10101000994600204590002406E0469850F8241098
:10102000459808444590641C4445F6DB4598B0FB60
:10103000F8F04590002408E0469850F824104598B0
:10104000081AFE4941F82400641C4445F4DB0024DE
:1010500017E0FA4850F824100246601C52F82000AD
:101060000144A01C52F820000144E01C52F820006A
:101070000F183846F91707EB9171891042F82410C0
:10108000641CB4F5F87FE4DB00240AE0EB49601C43
:1010900051F8200051F82410401AE94941F8240081
:1010A000641CB4F5F77FF1DD00240EE0E44951F84B
:1010B00024200B46611C53F82110501800EBD0710E
:1010C00049101A4642F82410641CB4F5F77FEDDB92
:1010D00000251BE0002043902C460BE0D84850F838
:1010E0002410601BD74A32F81020439801FB1200ED
:1010F0004390641C681D8442F0DB40F27A414398BF
:1011000090FBF1F0CE4941F825006D1CB5F5F47F58
:10111000E0DD00204190002410E0C94850F8240090
:10112000002803DDC64850F8240003E0C44850F806
:1011300024004042419908444190641CB4F5F77F73
:10114000EBDD40F2EF11419890FBF1F04190052169
:101150000822419840F2EF13CDE901210090B84AEE
:1011600040A912A8FFF72FFF0020119040980228F5
:1011700021DB01240BE012A850F82410601E12AAF3
:1011800052F82000091A119808441190641C4098E4
:101190008442F0DB4098401E119991FBF0F01190D1
:1011A00041F27071119891FBF0F1549801600121A6
:1011B0005598017005E0A4495498016000215598A4
:1011C0000170002407E012A850F82400801C30A908
:1011D00041F82400641C40988442F4DB00240CE0B5
:1011E000469850F82400954941F82400489850F852
:1011F0002400964941F82400641C4445F0DB00209B
:10120000429000242DE00120449030A850F824A002
:101210004FF080703F900AF10500B0F5F77F1FDCBA
:101220000A3800281CDD054611E0844850F82510D6
:101230003F9881420ADA449808B1002044907F48E0
:1012400050F825003F9021A840F824506D1C0AF169
:1012500005008542E9DB449810B94298401C429051
:10126000641C40988442CEDB4298022808DA764813
:10127000C9F800000021539801704AB0BDE8F08F12
:1012800000242EE06D4951F824200B46611C53F8D0
:1012900021100A44A11C53F821100A44E11C53F800
:1012A00021105018C11700EB917189101A4642F8AD
:1012B0002410664951F824200B46611C53F8211074
:1012C0000A44A11C53F821100A44E11C53F82110D0
:1012D0005018C11700EB917189101A4642F824107A
:1012E000641CB4F5F87FCDDB0020049000260024B8
:1012F00004E0002005A941F82400641C052CF8DB5B
:1013000000240DE021A850F82400B0F5FA7F06DD96
:101310004D48C9F80000002153980170ADE7641CE6
:1013200042988442EEDB0024AEE04FF07F400D9007
:101330000C9021A9601C51F8200051F82410401A8B
:101340000A2879DD21A850F8245016E03B4850F8CF
:1013500025100C98814204DD384850F825000C9087
:101360000A953A4850F825100D98814204DD374817
:1013700050F825000D900B956D1C21A9601C51F8AB
:101380002000A842E2DC601C51F820002F4951F8EF
:10139000200021A951F824102C4A52F82110401A9B
:1013A00021A951F824200B99891A4843109021A9AA
:1013B000601C51F8200051F82410411A109890FB3D
:1013C000F1F021A951F82410204A52F821100844C4
:1013D000109011460B9851F820101098081A109090
:1013E00021A9601C51F82000144951F8200021A9BE
:1013F00051F82410114A52F82110401A21A951F82D
:1014000024200A99891A48430F9021A9601C51F899
:10141000200051F82410411A0F9890FBF1F021A9F7
:1014200051F82410054A52F8211008440F90114633
:101430000B9851F820100BE025E00000A8170020C1
:10144000E80F0020482F000819FCFFFF781F00203C
:101450000F98081A0F900C9910984843C0110390E8
:101460000D990F984843C711002F0CDD052E0ADA9D
:10147000039840B164210398484390FBF7F005A915
:1014800041F82600761C641C4298401EA0423FF79B
:101490004CAF314605A8FFF7E5FC304606EBD071AE
:1014A0004FEA610BBBF1010F0CDDABF1010105AAA5
:1014B00052F8211052F82B20881800EBD0714910F7
:1014C000049103E005A850F82B000490049802282A
:1014D0000DDD0498B8280ADA09490498085C0E90D2
:1014E0000E98C9F8000001215398017005E00548E5
:1014F000C9F8000000215398017000BFBDE600004C
:10150000862F000819FCFFFF10B5FE4B1960002361
:10151000FD4CC4F88831002216E00023F94C241D4C
:10152000236000F080031BB10123241D236003E02E
:101530000023F44C083423600123F24C241D236063
:101540004306180E531CDAB2082AE6DB0123ED4CE1
:10155000083C2360EC4CC4F8903110BD30B5002439
:101560001CE004F1B001C8B20021FFF7CDFF00215B
:101570000846FFF7C9FF00211020FFF7C5FF00252F
:1015800008E0E24901EBC501085D0121FFF7BCFF5E
:10159000681CC5B2802DF4DB601CC4B2082CE0DBF3
:1015A00030BD00B500218D20FFF7AEFF00211420D3
:1015B000FFF7AAFF0021AF20FFF7A6FF00BD00B58F
:1015C00000218D20FFF7A0FF00211020FFF79CFFD6
:1015D0000021AE20FFF798FF00BD30B500240CE0DD
:1015E000002506E00020C94901EBC5010855681C2B
:1015F000C5B2802DF6DB601CC4B2082CF0DBFFF70F
:10160000ADFF30BDF0B5144600267F2801DC3F2930
:1016100000DDF0BD0B46CF1701EB5777FF10C7F188
:101620000707FAB2CF1701EB5777FF10A1EBC707F7
:10163000FDB2C5F107070123BB40DEB24CB1B34B8D
:1016400003EBC0039B5C3343B04F07EBC007BB54B5
:1016500008E0AE4B03EBC0039B5CB343AB4F07EB1F
:10166000C007BB5400BFD4E72DE9F04706460F463C
:1016700090469946DDF820A034460CE03D4606E051
:10168000524629462046FFF7BDFF681CC5B24D45AE
:10169000F6DD601CC4B24445F0DDFFF75FFFBDE836
:1016A000F0872DE9F84F80460F4616461C46BA468D
:1016B0002046E31704EB5373DB1021464FEAE47C2A
:1016C00004EB5C7C4FEAEC0CA4EBCC0CBCF1000FFF
:1016D00002D04FF0010C01E04FF0000C63442246B1
:1016E00004EBD27C4FEA6C0C03FB0CF303F0FF0B12
:1016F000A6F12000C6B200254EE00C2C07D106EB67
:101700004600834901EB8000405D009013E0102CFF
:1017100005D1804800EB0610405D00900BE0182CCE
:1017200007D106EBC6007C4901EB8000405D0090CC
:1017300001E0BDE8F88F4FF0000927E0009800F0C5
:10174000800028B1394640460A9AFFF75BFF09E05E
:101750000A9808B9012000E00020024639464046B8
:10176000FFF750FF00984006000E0090781CC7B2AB
:10177000A7EB0A00A04205D1574608F1010000F08E
:10178000FF0806E009F1010000F0FF09B9F1080FB8
:10179000D4DB00BF681CC5B25D45AEDB00BFC8E747
:1017A00010B50246012000E050430B1EA1F10104D8
:1017B000E1B2F9D110BD2DE9FF4F81B00746914646
:1017C0001E460E9D4FF0000A002439E0301B401EDB
:1017D000C1B20A20FFF7E4FFB9FBF0F00A21B0FB29
:1017E000F1F201FB1208BAF1000F16D1701EA042EF
:1017F00013DDB8F1000F0ED10120AB4605EBDB7114
:10180000491001FB04710090C8B22B4620220299B6
:10181000FFF747FF12E04FF0010A0120AB4605EB4E
:10182000DB71491001FB04710090C8B208F130016E
:10183000CAB22B460299FFF734FF00BF601CC4B246
:10184000B442C3DB05B0BDE8F08FF8B506460F46DD
:1018500015461C4621E004EBD4714910C1F180010A
:10186000B14202DA00263819C7B2C4F14000B842CA
:1018700004DA002006460746FFF7AFFE012000907D
:101880002A78234639463046FFF70BFF204604EB03
:10189000D07106EB6101CEB26D1C28787E2802DC87
:1018A00028782028D7DAF8BD08B50121042000F0F7
:1018B000DFFC7C20ADF8000010208DF80300032031
:1018C0008DF802006946154800F016FA00200D490F
:1018D000091F0860642000F0B8F801200A49C1F827
:1018E0008C010021AE20FFF70FFE0021D520FFF76D
:1018F0000BFE00215020FFF707FE0021A820FFF774
:1019000003FE0DE090012142000021424827002003
:101910003E300008B2340008A23A00080008014036
:1019200000213F20FFF7F0FD0021D320FFF7ECFD61
:1019300000210846FFF7E8FD00214020FFF7E4FD05
:1019400000218D20FFF7E0FD00211420FFF7DCFDD2
:1019500000212020FFF7D8FD00210220FFF7D4FD51
:101960000021A120FFF7D0FD0021C020FFF7CCFD12
:101970000021DA20FFF7C8FD00211220FFF7C4FD87
:1019800000218120FFF7C0FD0021EF20FFF7BCFD03
:101990000021D920FFF7B8FD0021F120FFF7B4FDA9
:1019A0000021DB20FFF7B0FD00213020FFF7ACFD68
:1019B0000021A420FFF7A8FD0021A620FFF7A4FD29
:1019C0000021AF20FFF7A0FDFFF707FE08BD0000D4
:1019D00010B56FF0040000F002FF2E4800682E4999
:1019E000B0FBF1F02D4908700846007800EB40018B
:1019F000C1EBC0104FF6FF7101EAC0002849088012
:101A000010BD0146254A12784A434FF0E0235A613F
:101A100000229A611A46126942F001021A6100BF5F
:101A20004FF0E022106900F001021AB100F4803298
:101A3000002AF5D04FF0E022126922F001024FF0A7
:101A4000E0231A6100229A6170470146144A128805
:101A50004A434FF0E0235A6100229A611A46126904
:101A600042F001021A6100BF4FF0E022106900F05D
:101A700001021AB100F48032002AF5D04FF0E022C2
:101A8000126922F001024FF0E0231A6100229A61EC
:101A9000704700001400002000127A002800002087
:101AA0002A00002010B54FF4A06000F049FE10BDE0
:101AB000014600BF704700BF4B4A128802F0400247
:101AC000002AF9D0C2B2484B1B1D1A80704710B5CE
:101AD00086B00446012144F2040000F0C9FB4248EC
:101AE00000F02AFC4FF40070ADF8140003208DF8CC
:101AF000160018208DF8170005A93C4800F0FCF8E6
:101B00004FF48060ADF8140004208DF8170005A98B
:101B1000364800F0F1F825208DF8000003208DF8FC
:101B200001008DF8020001208DF80300684600F0E6
:101B30000CFE01940020ADF80800ADF80A00ADF8E5
:101B40000C00ADF810000C20ADF80E0001A92648DD
:101B500000F035FC012240F22551234800F0C7FC7B
:101B60000121214800F0B7FC06B010BD10B540F2CD
:101B700025511D4800F0A0FD10B31B4800F01CFDCE
:101B8000C4B21B48008800F40040C8B91848008857
:101B900000F4804060B10A2C03D000201449088072
:101BA00020E01348008840F400401149088019E003
:101BB0000D2C06D10E48008840F480400C49088066
:101BC00010E00B480088C0F30D000A490C54084887
:101BD0000088401C0649088008460088C72801DDA7
:101BE0000020088010BD00000038014000080140BE
:101BF00030000020482B0020094880470948004752
:101C0000FEE7FEE7FEE7FEE7FEE7FEE7FEE7FEE7AC
:101C1000FEE7FEE704480549054A064B7047000009
:101C2000B3060008ED000008702C00207032002080
:101C3000702E0020702E002010B50446CC4884423F
:101C400008D10121042000F02DFB0021042000F028
:101C500029FB46E0C748844208D10121082000F052
:101C600021FB0021082000F01DFB3AE0C24884421D
:101C700008D10121102000F015FB0021102000F0F8
:101C800011FB2EE0BD48844208D10121202000F044
:101C900009FB0021202000F005FB22E0B848844227
:101CA00008D10121402000F0FDFA0021402000F081
:101CB000F9FA16E0B348844208D10121802000F0EF
:101CC000F1FA0021802000F0EDFA0AE0AE488442EB
:101CD00007D10121801500F0E5FA0021A01500F0E0
:101CE000E1FA10BD10B50121084600F0DBFA002131
:101CF000012000F0D7FA10BD2DE9F0410246002581
:101D00000026002000230024002791F803C00CF0D7
:101D10000F0591F803C00CF0100CBCF1000F03D0BC
:101D200091F802C04CEA050591F800C0BCF1000F23
:101D300031D0146800202BE04FF0010C0CFA00F3B6
:101D4000B1F800C00CEA03069E4220D183004FF098
:101D50000F0C0CFA03F7BC4305FA03FC4CEA04042D
:101D600091F803C0BCF1280F06D14FF0010C0CFA1A
:101D700000FCC2F814C00AE091F803C0BCF1480F9F
:101D800005D14FF0010C0CFA00FCC2F810C0401C49
:101D90000828D1D31460B1F800C0BCF1FF0F34DDC6
:101DA000546800202EE000F1080C4FF0010808FAFA
:101DB0000CF3B1F800C00CEA03069E4221D1830067
:101DC0004FF00F0C0CFA03F7BC4305FA03FC4CEA86
:101DD000040491F803C0BCF1280F05D100F1080CF0
:101DE00008FA0CF8C2F8148091F803C0BCF1480F4F
:101DF00007D100F1080C4FF0010808FA0CF8C2F8FE
:101E00001080401C0828CED35460BDE8F0814FF606
:101E1000FF710180022181700421C1707047024668
:101E2000002093680B400BB1012000E000207047B8
:101E30000146886880B2704702460020D3680B4094
:101E40000BB1012000E0002070470146C86880B255
:101E5000704701617047416170470AB1016100E05C
:101E600041617047C16070474FF480320A4382611C
:101E70008161826182698269704702460020434B1A
:101E800018684FF68073184040EA021008433F4B31
:101E9000186070473E49C8617047F0B50A46002394
:101EA00000240021002500F00046B6F1004F02D1C9
:101EB000364EF16901E0354E7168C0F3034583B2D7
:101EC00000F44016B6F5401F08D121F070612F4E86
:101ED000766826F070662D4F7E6012E000F4801662
:101EE000B6F5801F06D1032606FA05F4A14341F09A
:101EF000706106E0460D360103FA06F6B14341F083
:101F0000706122B1460D360103FA06F6314300F046
:101F10000046B6F1004F02D11C4EF16101E01B4EAC
:101F20007160F0BD30B500228B071C0F0F2303FA40
:101F300004F2164B08338C1053F824309343134C9F
:101F400008348D1044F8253023468C1053F8243083
:101F50008C07240F00FA04F423430C4C08348D1032
:101F600044F8253030BD0A49DC3108607047000074
:101F700000080140000C0140001001400014014025
:101F800000180140001C01400020014000000140F9
:101F900000002042DF48006840F00100DD49086091
:101FA00008464068DC490840DA494860084600684D
:101FB000DA490840D74908600846006820F48020C4
:101FC00008600846406820F4FE0048604FF41F0097
:101FD00088607047CF49096821F48031CD4A11608B
:101FE0001146096821F480211160B0F5803F03D0CB
:101FF000B0F5802F0ED106E0C649096841F4803162
:10200000C44A116007E0C349096841F4A021C14AEC
:10201000116000E000BF00BF704710B5014600220C
:10202000002300204A11012A02D1BA4C236806E09D
:10203000022A02D1B74C236A01E0B64C636A01F070
:102040001F02012494401C400CB1012000E000203C
:1020500010BD38B5002000900024002500BF3120BD
:10206000FFF7DBFF05460098401C00900098B0F594
:10207000A06F01D0002DF2D03120FFF7CEFF08B1C4
:10208000012400E00024204638BD01460020A14A7A
:10209000106820F0F80040EAC10010607047A049C5
:1020A00008607047024600209A4B586820F47C1064
:1020B00042EA01031843974B5860704798490866F5
:1020C000704701460020934A506820F003000843FF
:1020D000506070478F48406800F00C007047014620
:1020E00000208C4A506820F0F00008435060704790
:1020F00001460020874A506820F4E06008435060A1
:10210000704701460020834A506820F4605040EA3E
:10211000C1005060704729B17E4A527A02437D4B1C
:102120005A7204E07B4A527A82437A4B5A72704761
:102130007B49D8310860704701460020754A5068D5
:1021400020F440400843506070470021714A20321B
:102150001170704A82F82010012802D004280AD198
:1021600004E001216B4A2032117005E00521694A23
:102170002032117000E000BF00BF7047694908605D
:1021800070476449096A0143624A116270476549B0
:1021900044390860704730B5002100220024002334
:1021A0005C4D6D6805F00C0121B1042905D00829AA
:1021B00023D105E05C4D056022E05B4D05601FE02A
:1021C000544D6D6805F47012524D6D6805F48034FD
:1021D000022505EB92421CB9544D554305600BE0B6
:1021E0004C4D6D6805F400351DB1504D55430560EB
:1021F00002E04D4D5543056002E04B4D056000BFC8
:1022000000BF444D6D6805F0F0010909484D6B5C55
:102210000568DD4045603F4D6D6805F4E061090AE1
:10222000434D6B5C4568DD4085603A4D6D6805F453
:102230006051C90A3E4D6B5C4568DD40C560354D57
:102240006D6805F44041890B3A4D6B5CC568B5FB80
:10225000F3F5056130BD29B12E4A526902432D4B79
:102260005A6104E02B4A526982432A4B5A617047F3
:1022700029B1284A92690243264B9A6104E0254A13
:1022800092698243234B9A61704729B1214AD269EE
:102290000243204BDA6104E01E4AD26982431D4B9F
:1022A000DA61704729B11B4AD2680243194BDA60E0
:1022B00004E0184AD2688243164BDA60704729B1AD
:1022C000144A12690243134B1A6104E0114A12695D
:1022D0008243104B1A6170471249403908607047B9
:1022E0000F49C86470470B49C87170470948406A74
:1022F00040F0807007494862704701460020054A57
:1023000092680A400AB1012000E0002070470149AC
:1023100088727047001002400000FFF8FFFFF6FED1
:10232000000042428004424200127A0000093D004F
:10233000320000204200002010B50446FB488442D1
:1023400009D101218803FFF7ADFF00214FF4804040
:10235000FFF7A8FF32E0F648844209D10121480482
:10236000FFF7ADFF00214FF40030FFF7A8FF25E095
:10237000F048844209D101218804FFF7A0FF002121
:102380004FF48020FFF79BFF18E0EB48844209D10F
:102390000121C804FFF793FF00214FF40020FFF74D
:1023A0008EFF0BE0E548844208D101210805FFF7C4
:1023B00086FF00214FF48010FFF781FF10BD2DE94B
:1023C000F04786B005460E460024A24600BFA1464F
:1023D0000027B08900B100BF2F462C8A4CF6FF7051
:1023E0000440F08804432C82AC894EF6F31004407C
:1023F000B08831890843718908430443AC81AC8AB1
:102400004FF6FF400440B0890443AC8201A8FFF7B7
:10241000C2FEC648874202D1DDF810A001E0DDF817
:102420000CA0A88900F4004040B10AEBCA0000EB00
:102430000A1031684900B0FBF1F807E00AEBCA0066
:1024400000EB0A1031688900B0FBF1F86420B8FB9A
:10245000F0F004012009642101FB1089A88900F42F
:10246000004040B1322000EBC900B0FBF1F000F0B9
:102470000700044308E0322000EB09106421B0FBA0
:10248000F1F000F00F0004432C8106B0BDE8F087A6
:102490004FF41651016000218180C18001810C211F
:1024A000418100218181704710B502460020108AC9
:1024B0004FF2FF0318400B884C8823438C8823433A
:1024C000CC8823431843108210BD00210180418035
:1024D0008180C180704721B1828942F4005282819B
:1024E00004E082894DF6FF731A4082817047F0B58F
:1024F0000346002400260025002040F66A17B94252
:1025000000D100BF1846C1F3421401F01F06012795
:1025100007FA06F5012C01D10C3004E0022C01D1A0
:10252000103000E014301AB107682F43076002E052
:102530000768AF430760F0BD1AB1838A0B438382FB
:1025400002E0838A8B4383827047028A4FF6F073DE
:102550001A400282028A0A430282704782894FF23D
:10256000FF731A40828182890A438281704721B1B8
:10257000828942F00202828104E082894FF6FD7373
:102580001A4082817047028A4FF6DF731A40028236
:10259000028A0A430282704721B1028A42F48042D1
:1025A000028204E0028A4BF6FF731A4002827047EF
:1025B000C1F308028280704701468888C0F3080092
:1025C0007047818941F0010181817047028BD2B24D
:1025D0000283028B42EA012202837047028B02F4DB
:1025E0007F420283028B0A430283704721B1828AB1
:1025F00042F02002828204E0828A4FF6DF731A40A2
:102600008282704721B1828A42F01002828204E005
:10261000828A4FF6EF731A408282704721B1828A14
:1026200042F00802828204E0828A4FF6F7731A4071
:102630008282704721B1828942F40042828103E0A4
:102640008289C2F30E028281704721B1828A42F4EC
:102650000062828204E0828A4FF2FF731A40828213
:102660007047828A4FF6FB731A408282828A0A433D
:102670008282704721B1828A42F00202828204E0A3
:10268000828A4FF6FD731A4082827047024600200C
:10269000B1F5007F00D100BF13880B400BB10120C2
:1026A00000E00020704701F40072B2F5007F00D115
:1026B00000BFCA430280704770B502460024002361
:1026C0000025002040F66A16B14200D100BFC1F3D8
:1026D000421501F01F03012606FA03F3012D02D172
:1026E0009689334006E0022D02D1168A334001E07C
:1026F000968A33400C12012606FA04F416883440F8
:1027000013B10CB1012000E0002070BD10B5002213
:10271000002340F66A14A14200D100BF0A1201242E
:102720009440A3B2DC43048010BD00000038014097
:102730000044004000480040004C00400050004071
:1027400031490143314A1160704770B500210023BF
:102750000F22C47804B32D4C246804F4E064C4F55B
:10276000E064210AC1F10403CA40447804FA03F189
:102770008478144021430901254C0678A15504783A
:1027800004F01F050124AC4005786D11AD0005F182
:10279000E025C5F8004109E0047804F01F05012494
:1027A000AC401C4D0678761145F8264070BD1A4A9B
:1027B0000A400243154B1B1F1A60704739B1134A78
:1027C000121D12680243114B1B1D1A6006E00F4ACE
:1027D000121D126882430D4B1B1D1A60704704289E
:1027E00008D14FF0E021096941F004014FF0E022E7
:1027F000116107E04FF0E021096921F004014FF079
:10280000E0221161704700000000FA050CED00E0C5
:1028100000E400E080E100E080FFFF1F704700005F
:102820000FB4044910B503AA029800F07FF910BC58
:102830005DF814FB2C0000200FB41CB5074B06AA52
:102840007B4469460090059800F057F900206946DE
:1028500000F066F91CBC5DF814FB0000DD0200000E
:1028600070B5044685690068C10601D5302600E0D0
:102870002026C00707D070BDD4E90121304690471B
:10288000206A401C20626D1EF6D570BD70B50446EE
:1028900085690078C00707D170BDD4E901212020E7
:1028A0009047206A401C20626D1EF6D570BD000066
:1028B0002DE9F0410646002410687529314616A519
:1028C00010D0AFF30080002802DA404213A507E0E1
:1028D00031688A0701D512A502E0490704D511A580
:1028E000012401E0AFF3008000210A2206F1240751
:1028F00009E0B0FBF2FCB0FBF2F302FB1C0030304D
:1029000078541846491C0028F3D123462A463046FD
:10291000BDE8F04100F093B8000000002D00000079
:102920002B000000200000002DE9F0474FF0000AC6
:1029300089460446C0F820A02046E1688847002860
:1029400076D0252806D0D4E901219047206A401C82
:102950002062F1E7E168204600258847C4F81CA002
:1029600006460027C4F818A02A2E09D0304600F0E9
:1029700025F938B304EB8708303EC8F8186019E031
:1029800059F8041B204604EB87029161E1688847EF
:10299000012F064618D1E069002820DA25F020052D
:1029A0001DE0D8F8180000EB800006EB400030383E
:1029B000C8F818002046E1688847064600F0FEF88F
:1029C0000028EED1012F0AD02E2E08D12046E16832
:1029D00088477F1C0646022F45F02005C4DBA0690E
:1029E000002803DA404245F00105A061E80701D064
:1029F00025F01005B6B1A6F14100192802D82036FD
:102A000045F400654A463146204625604D46FDF7AF
:102A1000A7FB58B1012806D0ED1D25F0070000F1F5
:102A2000080989E704E005F1040985E730468AE7EB
:102A3000206ABDE8F08770477047704770472DE9FE
:102A4000F0470D4699469246044600F12408016875
:102A5000880604D5E06921F01001216000E0012022
:102A6000A84201DD471B00E00027A1697A1902EBAB
:102A70000900081AA0612078C00602D42046FFF79A
:102A8000EFFE002608E0D4E901211AF8060090477D
:102A9000206A401C761C20624E45F4DB2078C0067C
:102AA0000AD52046FFF7DCFE06E0D4E901213020FC
:102AB0009047206A401C2062381EA7F10107F4DC11
:102AC00007E0D4E9012118F805009047206A401C6E
:102AD0002062281EA5F10105F3DC2046FFF7D6FE93
:102AE0002078000602D50220BDE8F0870120FBE730
:102AF00001694A1C02610878704700B58FB0CDE9C2
:102B000001310021059105497944CDE903101146B1
:102B10006846FFF709FF0FB000BD0000E5FFFFFFAB
:102B20000A6802F8010B0A6070470000074B70B595
:102B30000D467B44FFF7E1FF0446284600F008F805
:102B400010B14FF0FF3070BD204670BD81EFFFFF28
:102B5000007B00F080007047754600F02BF8AE4611
:102B600005006946534620F00700854618B020B599
:102B7000FFF750F8BDE820404FF000064FF0000787
:102B80004FF000084FF0000B21F00701AC46ACE815
:102B9000C009ACE8C009ACE8C009ACE8C0098D4682
:102BA000704710B50446AFF300802046BDE81040E2
:102BB000FDF7EBBA00487047102C002030380A2887
:102BC00001D2012070470020704700004FF47F0CB5
:102BD0001CEAD0121EBF1CEAD11392EA0C0F93EA32
:102BE0000C0F00F0858090EA010F48BF42F480721C
:102BF00040F4000C41F400002CF07F4120F07F40B5
:102C000000B58142A2EB03020FF2081CACEB504E60
:102C1000C0F100009EF800E04FEA4E0E00FB0EFCF3
:102C200038BF49004FEA2C1C02F5FA020CFB0EF3E8
:102C30004FEACE1E4FEA112C4FEAC1210EEB635E24
:102C400042EB22420EFB0CFC4FEA1C5300FB03112B
:102C50004FEA112C4FEA01310EFB0CFC4FEADC4C21
:102C600000FB0C11C14228BF09184CEB03335DF87F
:102C700004EB10EB410143EBC250B2F57C0F38BFBF
:102C8000704729D512F0F00F1CBF00F1C04000F0D2
:102C900000407047008182838485868788898B8C79
:102CA0008D8E8F919293959697999A9C9D9FA0A2B5
:102CB000A3A5A7A8AAACAEB0B2B3B5B7B9BCBEC005
:102CC000C2C5C7C9CCCED1D4D7D9DCDFE2E6E9ECA6
:102CD000F0F3F7FAFE0000004FEA400C0CF1807CA4
:102CE000BCF17E4F28BF7047B0F1C04000F027B95B
:102CF00090EA010F0CEAD11348BF42F4807262459A
:102D000038BF634507D213F47F0F16D080EA010065
:102D100000F00040704710B500F0CBF8097EFC3E93
:102D200000F005B880EA010000F00040704780EA3A
:102D3000010000F0004000F002B912F47F0F04BF60
:102D40000248704780EA010000F0F9B80000C07F37
:102D500041000B0ED3F19E0208D950F400034FEA54
:102D6000032323FA02F048BF4042704710B500F039
:102D7000A0F800BF49922480002070476FF0004205
:102D800082EA200070470000B0FA80F310FA03F2E4
:102D9000C3F19D030AD0D90501EB1220530638BFB9
:102DA000704700F1010008BF20F0010070470000EB
:102DB0004FF47F0C1CEAD0121EBF1CEAD11392EA1A
:102DC0000C0F93EA0C0F00F0478090EA010F48BF08
:102DD00042F480724FF0004C4CEA00204CEA012192
:102DE00002EB0302A0FB0113A2F50002002918BFA9
:102DF00043F001035B0028BF4FEA330342EB22425A
:102E00005FEA132C4CEBC2502EBFBCEB436FB2F504
:102E10007C0F70474FEA036CBCF1004F08BF20F0F5
:102E20000100B2F57C0F38BF70470BD582F0FF026E
:102E300012F5803FC8BF704700F1C040D8BF00F016
:102E40000040704700F5000C5FEA4C0C48BF70472B
:102E5000B0F1C04000F073B890EA010F0CEAD11352
:102E600048BF42F48072624538BF634504D280EAAD
:102E7000010000F00040704710B500F01AF800BFE4
:102E80008900013E00F007B800F009B85FEA410C84
:102E90005FEA1C6C08D080EA010000F050B85FEADD
:102EA000400C5FEA1C6CF6D14FF00040A0F58000AA
:102EB00070470EF1020E2EF0030E5EF8044B244212
:102EC00004D44FEA4102B2F17F4F11D84FEA4003D8
:102ED000B3F17F4F0CD80ED14FEAD07CB2F17F4FC7
:102EE0000CEB4C0C0CF1020C08BF4CEBD17C04E059
:102EF0004FF0080C01E04FEAD17C0CEB4C0324FAB4
:102F000003F404F00704B4F1040C06D20EEB840CB5
:102F1000BDE810404CF0010C6047DFE80CF00708FA
:102F200002024FF00040A0F5800010BD08464200AC
:102F300018BFD2F1807288BF00F0004010BDFF21A1
:102F400041EAD050C0057047290014010002140165
:102F50002900000000000000000000000000000048
:102F60000000000000000000000000000000000061
:102F70000000000000000000000000000000000051
:102F80000000000000005F5F5F6060606161616180
:102F90006162626262626363636363636363646406
:102FA00064646464646464646464646464646464E1
:102FB00064646363636363636363626262626262E5
:102FC00061616161606060605F5F5F5E5E5E5D5D0C
:102FD0005D5C5C5C5B5B5A5A595959585857575657
:102FE0005655555454535252515150504F4E4E4DC8
:102FF0004C4C4B4A4A49484847464545444342425F
:1030000041403F3E3E3D3C3B3A3938383736353417
:10301000333231302F2E2D2C2B2A292827262524F8
:103020002322211F1E1D1C1B1A19171615141311FC
:10303000100F0E0C0B0A0907060503020100000021
:1030400000000000000000000000000000003F4001
:103050000000000000000000300040003000400090
:10306000000009000BC03D000BC03D00090018C066
:1030700024407FE0224031800000180024C01B0063
:103080000D803240018003801C4027401C80074097
:103090000040100060000000000000000000000080
:1030A000000000001F802040402000004020204001
:1030B0001F8000000000090006001F8006000900B4
:1030C0000000040004003F80040004000000001021
:1030D0000060000000000000000004000400040084
:1030E0000400040000000000004000000000000098
:1030F0000000002001C006003800400000001F80D2
:103100002040204020401F800000000010403FC0B1
:1031100000400000000018C0214022402440184018
:10312000000010802040244024401B80000002004A
:103130000D0011003FC0014000003C8024402440AD
:103140002440238000001F8024402440344003801A
:1031500000003000200027C03800200000001B8045
:103160002440244024401B8000001C0022C0224038
:1031700022401F8000000000000008400000000006
:1031800000000000000004600000000000000000DB
:1031900004000A00110020804040090009000900D5
:1031A00009000900000000004040208011000A00D2
:1031B00004001800200023402400180000001F8095
:1031C0002040274029401F400000004007C0390030
:1031D0000F0001C0004020403FC0244024401B801D
:1031E00000001F8020402040204030800000204010
:1031F0003FC0204020401F80000020403FC02440AE
:103200002E4030C0000020403FC024402E0030003F
:1032100000000F0010802040224033800200204038
:103220003FC0040004003FC02040204020403FC079
:103230002040204000000060202020203FC02000CF
:10324000200020403FC024400B0030C020402040E0
:103250003FC020400040004000C03FC03C0003C0D1
:103260003C003FC0000020403FC00C4023003FC056
:1032700020001F802040204020401F800000204070
:103280003FC024402400180000001F80214021403E
:1032900020E01FA0000020403FC02440260019C0AD
:1032A000004018C0244024402240318000003000FB
:1032B00020403FC020403000000020003F80004000
:1032C00000403F80200020003E0001C00700380081
:1032D0002000380007C03C0007C038000000204034
:1032E00039C0060039C0204000002000384007C027
:1032F000384020000000304021C02640384020C027
:103300000000000000007FE040204020000000009E
:1033100070000C00038000400000000040204020AE
:103320007FE00000000000002000400020000000BE
:10333000000000100010001000100010001000002D
:103340000000400000000000000000000280054076
:10335000054003C0004020003FC0044004400380FB
:10336000000000000380044004400640000000000C
:103370000380044024403FC000400000038005401B
:10338000054003400000000004401FC024402440CA
:103390002000000002E005500550065004202040A7
:1033A0003FC00440040003C000400000044027C0A8
:1033B00000400000000000100010041027E0000092
:1033C000000020403FC00140070004C004402040EE
:1033D00020403FC000400040000007C0040007C07C
:1033E000040003C00000044007C00440040003C000
:1033F00000400000038004400440038000000410EB
:1034000007F00450044003800000000003800440E3
:10341000045007F00010044007C0024004000400FC
:103420000000000006400540054004C00000000008
:1034300004001F800440004000000400078000409A
:10344000044007C000400400070004C001800600DB
:103450000400060001C0070001C00600000004408F
:1034600006C0010006C0044000000410071004E07C
:103470000180060004000000044005C0064004402E
:1034800000000000000004007BE04020000000007D
:1034900000000000FFF000000000000040207BE082
:1034A00004000000000040008000400020002000D8
:1034B00040000000000000000000000000000000CC
:1034C00000000000000000001FCC000C0000000005
:1034D00000000000080030006000080030006000BC
:1034E0000000022003FC1E20022003FC1E200220FC
:1034F000000000000E1811043FFF10840C7800003B
:1035000000000F0010840F3800C00778188400787E
:10351000000000780F8410C411240E9800E4008489
:1035200000080800680070000000000000000000B3
:10353000000000000000000007E01818200440020E
:103540000000000040022004181807E000000000FE
:1035500000000240024001800FF001800240024062
:1035600000000080008000800FF800800080008054
:1035700000000001000D000E00000000000000002F
:10358000000000000080008000800080008000803B
:1035900000800000000C000C000000000000000093
:1035A00000000000000600180060018006001800FE
:1035B0002000000007F0080810041004080807F0B5
:1035C00000000000080408041FFC000400040000C0
:1035D000000000000E0C10141024104411840E0C76
:1035E000000000000C1810041104110412880C7063
:1035F0000000000000E00320042408241FFC002435
:10360000000000001F98108411041104108810702D
:103610000000000007F008881104110418880070E9
:10362000000000001C00100010FC13001C00100023
:10363000000000000E3811441084108411440E382C
:10364000000000000700088C10441044088807F0B0
:103650000000000000000000030C030C000000004C
:103660000000000000000001010600000000000052
:10367000000000000080014002200410080810042F
:10368000000002200220022002200220022002204C
:10369000000000001004080804100220014000800F
:1036A000000000000E001200100C106C10800F00C3
:1036B000000003E00C1813E4142417C4082807D0F2
:1036C00000000004003C03C41C40074000E4001C50
:1036D000000410041FFC1104110411040E88007072
:1036E000000003E00C1810041004100410081C1053
:1036F000000010041FFC100410041004080807F058
:10370000000010041FFC1104110417C41004081851
:10371000000010041FFC1104110017C01000080065
:10372000000003E00C181004100410441C78004042
:10373000000010041FFC10840080008010841FFC17
:1037400010040000100410041FFC100410040000FA
:10375000000000030001100110011FFE1000100006
:10376000000010041FFC110403801464181C1004D2
:10377000000010041FFC1004000400040004000CEE
:10378000000010041FFC1F0000FC1F001FFC1004A1
:10379000000010041FFC0C04030000E010181FFCC4
:1037A000100007F00808100410041004080807F0BF
:1037B000000010041FFC10841080108010800F0087
:1037C000000007F0081810241024101C080A07F243
:1037D000000010041FFC1104110011C011300E0C68
:1037E000000400000E1C11041084108410441C38C6
:1037F00000001800100010041FFC10041000180036
:10380000000010001FF810040004000410041FF84A
:10381000100010001E0011E0001C007013801C003E
:1038200010001FC0103C00E01F0000E0103C1FC053
:1038300000001004180C163401C001C01634180C16
:10384000100410001C00130400FC13041C001000E2
:1038500000000804101C1064108413041C041018C9
:1038600000000000000000007FFE40024002400215
:103870000000000030000C0003800060001C00030A
:10388000000000004002400240027FFE00000000F5
:103890000000000000002000400040004000200028
:1038A0000000000100010001000100010001000111
:1038B0000001000040004000200000000000000067
:1038C000000000000098012401440144014400FC70
:1038D000000410001FFC008801040104008800702F
:1038E0000000000000700088010401040104008849
:1038F00000000000007000880104010411081FFC92
:103900000004000000F8014401440144014400C8DF
:1039100000000000010401040FFC11041104110057
:103920001800000000D601290129012901C901065A
:10393000000010041FFC008401000100010400FCD1
:10394000000400000104190419FC00040004000034
:1039500000000000000300010101190119FE000030
:10396000000010041FFC0024004001B4010C0104FD
:1039700000000000100410041FFC000400040000FC
:103980000000010401FC0104010001FC010401002C
:1039900000FC010401FC008401000100010400FCA2
:1039A0000004000000F8010401040104010400F80F
:1039B0000000010101FF008501040104008800707E
:1039C000000000000070008801040104010501FFEF
:1039D00000010104010401FC0084010401000180D4
:1039E0000000000000CC01240124012401240198DE
:1039F000000000000100010007F8010401040000BC
:103A00000000010001F8000400040004010801FCAA
:103A10000004010001800170000C001001600180B1
:103A2000010001F0010C003001C00030010C01F078
:103A3000010000000104018C00740170018C01047C
:103A40000000010101810171000E00180160018078
:103A5000010000000184010C013401440184010CC7
:103A60000000000000000000000001003EFC4002D9
:103A700040020000000000000000FFFF0000000006
:103A800000000000400240023EFC01000000000077
:103A90000000000060008000800040004000200026
:103AA00020000000000000000000000000000000F6
:103AB0000000000000000000000000000000000006
:103AC00000000000000000000000000000000000F6
:103AD00000000000000F80380FFE380F8038000013
:103AE00000000000000000000000000000000000D6
:103AF0000100000600000C00003800003100000644
:103B000000000C0000380000300000000000000041
:103B1000000061800067F807F98000618000618023
:103B20000061800061800067F807F9800061800013
:103B3000000000000000000001C0E003E0F00630DB
:103B4000080418081FFFFE040E080787F00381E031
:103B500000000000000001F000060C00040408064C
:103B60000C7001F9C0000E00003BE000EC180708E3
:103B700008040C180003E00000000001E00007F05A
:103B800003F818041C0804170807E1D003C0E0007C
:103B900023B0003C080020080000100000000000D6
:103BA000000100003100003200001C000000000095
:103BB0000000000000000000000000000000000005
:103BC00000000000000000000000000000000000F5
:103BD00000007F0001FFC00780F00C0018100004F7
:103BE0002000020000000000002000021000040C71
:103BF00000180780F001FFC0007F000000000000F7
:103C00000000000000000000000000000000420072
:103C1000006600006600003C0000180003FFC000C2
:103C20001800003C00006600006600004200000032
:103C3000000008000008000008000008000008005C
:103C400001FFC00008000008000008000008000094
:103C500008000000000000010000310000320000F8
:103C60001C00000000000000000000000000000038
:103C70000000000000000000000008000008000034
:103C80000800000800000800000800000800000804
:103C90000000080000080000000000000000000014
:103CA000000038000038000038000000000000006C
:103CB0000000000000000000000000000000000004
:103CC0000000000600001C000070000180000E00D3
:103CD00000380000C0000700001C00003000000099
:103CE0000000000000007F8001FFE00380700600FC
:103CF0001804000804000806001803807001FFE0A3
:103D0000007F8000000000000000000001000801AA
:103D1000000801000803FFF807FFF8000008000092
:103D20000800000800000000000000000001C0388A
:103D300002C058040098040118040218040418066C
:103D40001C1803F81801E0F8000000000000000053
:103D50000001C0E003C0F0040008040808040808DB
:103D600006180803F41801E7F00001E00000000065
:103D70000000000000000300000D000011000061C1
:103D80000000810803010807FFF80FFFF800010891
:103D90000001080000000000000000E007FCD00661
:103DA0000808061008061008061008061838060F3E
:103DB000F00607C0000000000000000000003F8087
:103DC00001FFE003843002081804100804100804FE
:103DD0001008071810030FF00007C00000000000D3
:103DE0000000000003C0000700000600000600F805
:103DF0000607F806180006E00007000006000000AD
:103E0000000000000001E1E003F7F00634100418A0
:103E100008041808040C08040C0806161803F3F02C
:103E200001C1E000000000000000F80003FC3003C6
:103E300006380402080402080402080404100308F7
:103E4000F001FFC0007F0000000000000000000043
:103E50000000000000000000000070380070380012
:103E600070380000000000000000000000000000AA
:103E70000000000000000000000000000000301AF8
:103E800000301C00000000000000000000000000E6
:103E900000000000000000000008000014000022E4
:103EA000000041000080800100400200200400105A
:103EB00008000800000000000000210000210000B0
:103EC000210000210000210000210000210000212C
:103ED00000002100002100000000000000000000A0
:103EE000080008040010020020010040008080004B
:103EF0004100002200001400000800000000000043
:103F00000003C00004C000040000080038080F3897
:103F10000808380810000C300007E00003C000005B
:103F20000000000000003F8000FFE0038070020FEF
:103F30001006708804C088048308047F8802C0903B
:103F400003012000FE400000080000180001F800F6
:103F50003E0801C20007020007E20000FE00001F49
:103F6000C80001F800003800000804000807FFF846
:103F700007FFF804080804080804080804080806ED
:103F8000180803F41801E7F00001E0000000000049
:103F900000003F8001FFE003807002001804000869
:103FA0000400080400080400100600200780C00078
:103FB000000004000807FFF807FFF80400080400E9
:103FC0000804000804001802001003807001FFE0DC
:103FD000007F8000000004000807FFF807FFF804D6
:103FE0000808040808040808040808043E08040037
:103FF0000806001801006000000004000807FFF830
:1040000007FFF80408080408000408000408000476
:104010003E000600000600000180000000000000D5
:1040200000003F8001FFE0038070060018040008D4
:104030000402080402080203F00783F000020000F3
:10404000020004000807FFF807FFF804080800084A
:104050000000080000080000080004080807FFF836
:1040600007FFF80400080000000000000400080436
:10407000000804000807FFF807FFF8040008040020
:104080000804000800000000000000000000000616
:104090000000070000010400010400010400030700
:1040A000FFFE07FFFC040000040000040000040001
:1040B0000807FFF807FFF8040C08001800003E008E
:1040C00004C7800503C80600F8040038040018007F
:1040D000000804000807FFF807FFF80400080000C4
:1040E0000800000800000800000800000800001890
:1040F00000006000000004000807FFF807800807C0
:10410000FC00007FC00003F80007C00078000780B3
:104110000807FFF807FFF804000804000807FFF885
:1041200007000803C00000E000003800001E000087
:1041300007000001C00400F007FFF80400000000C1
:1041400000007F8001FFE003807006001804000873
:1041500004000806001803003001FFE0007F800023
:10416000000004000807FFF807FFF804040804042F
:1041700000040400040400040400060C0003F8001A
:1041800001F000000000000000007F8001FFE0035C
:1041900080700600880400880400C806003C030004
:1041A0003E01FFE6007F8400000004000807FFF8DE
:1041B00007FFF8040808040800040C00040F0004BA
:1041C0000BC00610F003F03801E008000008000002
:1041D0000001E0F803F03006301004180804180855
:1041E000040C08040C080206180207F00781E0001E
:1041F000000001800006000004000004000004002C
:104200000807FFF807FFF804000804000004000096
:1042100006000001800004000007FFE007FFF00433
:104220000018000008000008000008000008000056
:104230000804001007FFE00400000400000600006E
:1042400007E00007FE00041FE00001F8000038004E
:1042500001E0043E0007C000060000040000040066
:104260000007E00007FFC0041FF80007C007F800C0
:1042700007FF80043FF80007C004F80007000004AF
:10428000000000000004000806001807C07805F1CF
:10429000C8003E00001F800463E80780F80600188D
:1042A000040008000000040000060000078000076A
:1042B000E008047C08001FF80007F800180804E074
:1042C00008070000060000040000000000010008CC
:1042D0000600380400F80403E8040F08047C08050D
:1042E000F00807C008070018040060000000000084
:1042F000000000000000000000000000003FFFFE82
:104300002000022000022000022000022000020003
:10431000000000000000000008000007000000C0CE
:10432000000038000006000001C000003000000E50
:10433000000001000000000000000000200002203A
:1043400000022000022000022000023FFFFE0000C9
:10435000000000000000000000000000000000005D
:1043600000000008000010000030000020000030B5
:104370000000100000080000000000000000000025
:104380000100000100000100000100000100000127
:104390000000010000010000010000010000010018
:1043A00000010000000000000000002000002000CC
:1043B00000100000100000000000000000000000DD
:1043C0000000000000000000000000F00019F800EC
:1043D0001B18002208002608002408002410003FB3
:1043E000F8001FF80000080000180000000400009A
:1043F00007FFF80FFFF00018180010080020080051
:104400002008003018001FF0000FC000000000005E
:10441000000007C0001FF00018300020080020082E
:10442000002008003C08001C100000600000000094
:1044300000000000000007C0001FF0003818002036
:104440000800200800200804101007FFF80FFFF0F4
:104450000000100000000000000000000007C00085
:104460001FF000123000221800220800220800323B
:1044700008001E10000E20000000000000002000B8
:1044800000200800200801FFF803FFF806200804B8
:10449000200804200807200003000000000000009E
:1044A0000000000E000E6E001FF30031B10020B1BD
:1044B0000020B1003191001F13002E1E00200E00BD
:1044C000300000000004000807FFF80FFFF800109C
:1044D00008002000002000002008003FF8001FF81E
:1044E000000008000000000000000000002008009C
:1044F0002008002008063FF8063FF80000080000EA
:10450000080000080000000000000000000000009B
:10451000000003000003002001002001002003062A
:104520003FFE063FFC00000000000000000000000D
:104530000004000807FFF80FFFF8000188000300DF
:10454000002FC00038F800203800200800000800C4
:10455000000000000000000004000804000804003F
:104560000807FFF80FFFF800000800000800000827
:10457000000000000000002008003FF8003FF800A5
:104580001008002000003FF8003FF800100800204D
:1045900000003FF8003FF80000080000000020087D
:1045A000003FF8003FF80010080010000020000055
:1045B0002008003FF8001FF800000800000000007D
:1045C000000007C0000FF00018300030080020087D
:1045D000002008003008001830000FF00007C0006D
:1045E0000000000000002001003FFF003FFF00101E
:1045F00011002009002008002008003038001FF0BA
:10460000000FC00000000000000007C0001FF00005
:104610003818002008002008002009001011001F91
:10462000FF003FFF000001000000002008002008FC
:10463000002008003FF8003FF800080800100800BC
:1046400020080020000030000030000000000000C2
:1046500000000000000C78001E180033080023083A
:104660000021080021880021980030F00038600007
:10467000000000000000200000200000200000FFDB
:10468000F003FFF800200800200800200800003098
:10469000000000000000000000002000003FF000CB
:1046A0007FF8000018000008000008002010003FFC
:1046B000F8007FF000001000000000000000200063
:1046C000003000003C00003F800023F00000780034
:1046D0000070002380003C0000300000200000201B
:1046E00000003C00003FE00023F80000E00027004D
:1046F000003E00003FE00021F80001E0003E000025
:104700002000000000002008002008003838003E8B
:10471000680027800003C8002CF8003838002018F3
:10472000002008000000000000002000003003000E
:104730003C01003F830023EC000070002380003C1C
:104740000000200000200000000000000000000029
:104750000038080020380020F80023E8002F8800E7
:104760003E0800380800201800007000000000001B
:104770000000000000000000000000000000080031
:104780000014001FF7FC30000620000200000000AB
:104790000000000000000000000000000000000019
:1047A00000000000FFFFFF0000000000000000000C
:1047B00000000000000000000000000020000230A7
:1047C00000061FF7FC0014000008000000000000B5
:1047D00000000000000000000000000000180000C1
:1047E00060000040000040000020000010000008B1
:1047F00000000400000400000C0000100000000095
:10480000204800080000002048000000280100089F
:1048100068480008480000202832000044010008D1
:104820000000000000000000000000000000000088
:104830000000000000A24A04000000000000000088
:104840000102030406070809000000000000000040
:104850000000000000000102030401020304060737
:0848600008090204060800002B
:04000005080000ED02
:00000001FF
